{
  "_format": "hh-sol-artifact-1",
  "contractName": "PQBFL",
  "sourceName": "contracts/PQBFL.sol",
  "abi": [
    {
      "anonymous": false,
      "inputs": [
        {
          "indexed": false,
          "internalType": "uint256",
          "name": "r",
          "type": "uint256"
        },
        {
          "indexed": true,
          "internalType": "uint256",
          "name": "id_p",
          "type": "uint256"
        },
        {
          "indexed": true,
          "internalType": "uint256",
          "name": "id_t",
          "type": "uint256"
        },
        {
          "indexed": false,
          "internalType": "bytes32",
          "name": "h_Inf_a",
          "type": "bytes32"
        },
        {
          "indexed": false,
          "internalType": "bytes32",
          "name": "h_pks_r",
          "type": "bytes32"
        },
        {
          "indexed": true,
          "internalType": "address",
          "name": "cAddr",
          "type": "address"
        },
        {
          "indexed": false,
          "internalType": "int256",
          "name": "sc",
          "type": "int256"
        },
        {
          "indexed": false,
          "internalType": "bool",
          "name": "T",
          "type": "bool"
        }
      ],
      "name": "FeedbackEvent",
      "type": "event"
    },
    {
      "anonymous": false,
      "inputs": [
        {
          "indexed": false,
          "internalType": "uint256",
          "name": "r",
          "type": "uint256"
        },
        {
          "indexed": true,
          "internalType": "uint256",
          "name": "id_p",
          "type": "uint256"
        },
        {
          "indexed": true,
          "internalType": "uint256",
          "name": "id_t",
          "type": "uint256"
        },
        {
          "indexed": false,
          "internalType": "uint256",
          "name": "time",
          "type": "uint256"
        }
      ],
      "name": "ProjectTerminate",
      "type": "event"
    },
    {
      "anonymous": false,
      "inputs": [
        {
          "indexed": true,
          "internalType": "address",
          "name": "cAddr",
          "type": "address"
        },
        {
          "indexed": true,
          "internalType": "uint256",
          "name": "id_p",
          "type": "uint256"
        },
        {
          "indexed": false,
          "internalType": "uint256",
          "name": "sc",
          "type": "uint256"
        },
        {
          "indexed": false,
          "internalType": "bytes32",
          "name": "h_epk",
          "type": "bytes32"
        }
      ],
      "name": "RegClient",
      "type": "event"
    },
    {
      "anonymous": false,
      "inputs": [
        {
          "indexed": true,
          "internalType": "uint256",
          "name": "id_p",
          "type": "uint256"
        },
        {
          "indexed": false,
          "internalType": "uint256",
          "name": "nClients",
          "type": "uint256"
        },
        {
          "indexed": true,
          "internalType": "address",
          "name": "sAddr",
          "type": "address"
        },
        {
          "indexed": false,
          "internalType": "bytes32",
          "name": "h_M0",
          "type": "bytes32"
        },
        {
          "indexed": false,
          "internalType": "bytes32",
          "name": "h_pks",
          "type": "bytes32"
        }
      ],
      "name": "RegProject",
      "type": "event"
    },
    {
      "anonymous": false,
      "inputs": [
        {
          "indexed": false,
          "internalType": "uint256",
          "name": "r",
          "type": "uint256"
        },
        {
          "indexed": false,
          "internalType": "bytes32",
          "name": "h_Inf_b",
          "type": "bytes32"
        },
        {
          "indexed": false,
          "internalType": "bytes32",
          "name": "h_pks_r",
          "type": "bytes32"
        },
        {
          "indexed": true,
          "internalType": "uint256",
          "name": "id_p",
          "type": "uint256"
        },
        {
          "indexed": true,
          "internalType": "uint256",
          "name": "id_t",
          "type": "uint256"
        },
        {
          "indexed": false,
          "internalType": "uint256",
          "name": "nClients",
          "type": "uint256"
        },
        {
          "indexed": false,
          "internalType": "uint256",
          "name": "D_t",
          "type": "uint256"
        },
        {
          "indexed": false,
          "internalType": "uint256",
          "name": "time",
          "type": "uint256"
        }
      ],
      "name": "TaskEvent",
      "type": "event"
    },
    {
      "anonymous": false,
      "inputs": [
        {
          "indexed": false,
          "internalType": "uint256",
          "name": "r",
          "type": "uint256"
        },
        {
          "indexed": false,
          "internalType": "bytes32",
          "name": "h_Inf_a",
          "type": "bytes32"
        },
        {
          "indexed": false,
          "internalType": "bytes32",
          "name": "h_ct_epk",
          "type": "bytes32"
        },
        {
          "indexed": true,
          "internalType": "uint256",
          "name": "id_p",
          "type": "uint256"
        },
        {
          "indexed": true,
          "internalType": "uint256",
          "name": "id_t",
          "type": "uint256"
        },
        {
          "indexed": true,
          "internalType": "address",
          "name": "cAddr",
          "type": "address"
        },
        {
          "indexed": false,
          "internalType": "uint256",
          "name": "time",
          "type": "uint256"
        }
      ],
      "name": "UpdateEvent",
      "type": "event"
    },
    {
      "inputs": [],
      "name": "MIN_DEPOSIT_WEI",
      "outputs": [
        {
          "internalType": "uint256",
          "name": "",
          "type": "uint256"
        }
      ],
      "stateMutability": "view",
      "type": "function"
    },
    {
      "inputs": [
        {
          "internalType": "address",
          "name": "",
          "type": "address"
        }
      ],
      "name": "clients",
      "outputs": [
        {
          "internalType": "bool",
          "name": "exists",
          "type": "bool"
        },
        {
          "internalType": "address",
          "name": "addr",
          "type": "address"
        },
        {
          "internalType": "uint256",
          "name": "projectId",
          "type": "uint256"
        },
        {
          "internalType": "bytes32",
          "name": "hEpk",
          "type": "bytes32"
        },
        {
          "internalType": "uint256",
          "name": "score",
          "type": "uint256"
        },
        {
          "internalType": "uint256",
          "name": "registeredAt",
          "type": "uint256"
        }
      ],
      "stateMutability": "view",
      "type": "function"
    },
    {
      "inputs": [
        {
          "internalType": "uint256",
          "name": "",
          "type": "uint256"
        },
        {
          "internalType": "address",
          "name": "",
          "type": "address"
        }
      ],
      "name": "feedbackByTaskAndClient",
      "outputs": [
        {
          "internalType": "bool",
          "name": "exists",
          "type": "bool"
        },
        {
          "internalType": "uint256",
          "name": "round",
          "type": "uint256"
        },
        {
          "internalType": "uint256",
          "name": "taskId",
          "type": "uint256"
        },
        {
          "internalType": "uint256",
          "name": "projectId",
          "type": "uint256"
        },
        {
          "internalType": "address",
          "name": "client",
          "type": "address"
        },
        {
          "internalType": "bytes32",
          "name": "hUpdateInf",
          "type": "bytes32"
        },
        {
          "internalType": "bytes32",
          "name": "hPks",
          "type": "bytes32"
        },
        {
          "internalType": "int256",
          "name": "scoreDelta",
          "type": "int256"
        },
        {
          "internalType": "bool",
          "name": "terminate",
          "type": "bool"
        },
        {
          "internalType": "uint256",
          "name": "time",
          "type": "uint256"
        }
      ],
      "stateMutability": "view",
      "type": "function"
    },
    {
      "inputs": [
        {
          "internalType": "uint256",
          "name": "r",
          "type": "uint256"
        },
        {
          "internalType": "uint256",
          "name": "id_t",
          "type": "uint256"
        },
        {
          "internalType": "uint256",
          "name": "id_p",
          "type": "uint256"
        },
        {
          "internalType": "address",
          "name": "cAddr",
          "type": "address"
        },
        {
          "internalType": "bytes32",
          "name": "h_Inf_a",
          "type": "bytes32"
        },
        {
          "internalType": "bytes32",
          "name": "h_pks_r",
          "type": "bytes32"
        },
        {
          "internalType": "int256",
          "name": "sc",
          "type": "int256"
        },
        {
          "internalType": "bool",
          "name": "T",
          "type": "bool"
        }
      ],
      "name": "feedbackModel",
      "outputs": [],
      "stateMutability": "nonpayable",
      "type": "function"
    },
    {
      "inputs": [
        {
          "internalType": "uint256",
          "name": "id_p",
          "type": "uint256"
        },
        {
          "internalType": "uint256",
          "name": "r",
          "type": "uint256"
        },
        {
          "internalType": "uint256",
          "name": "id_t",
          "type": "uint256"
        }
      ],
      "name": "finishProject",
      "outputs": [],
      "stateMutability": "nonpayable",
      "type": "function"
    },
    {
      "inputs": [
        {
          "internalType": "uint256",
          "name": "",
          "type": "uint256"
        }
      ],
      "name": "projects",
      "outputs": [
        {
          "internalType": "bool",
          "name": "exists",
          "type": "bool"
        },
        {
          "internalType": "uint256",
          "name": "id",
          "type": "uint256"
        },
        {
          "internalType": "address",
          "name": "server",
          "type": "address"
        },
        {
          "internalType": "uint256",
          "name": "nClients",
          "type": "uint256"
        },
        {
          "internalType": "uint256",
          "name": "clientCount",
          "type": "uint256"
        },
        {
          "internalType": "bytes32",
          "name": "hInitialModel",
          "type": "bytes32"
        },
        {
          "internalType": "bytes32",
          "name": "hServerKeys",
          "type": "bytes32"
        },
        {
          "internalType": "bool",
          "name": "done",
          "type": "bool"
        },
        {
          "internalType": "uint256",
          "name": "createdAt",
          "type": "uint256"
        }
      ],
      "stateMutability": "view",
      "type": "function"
    },
    {
      "inputs": [
        {
          "internalType": "uint256",
          "name": "r",
          "type": "uint256"
        },
        {
          "internalType": "bytes32",
          "name": "h_Inf_b",
          "type": "bytes32"
        },
        {
          "internalType": "bytes32",
          "name": "h_pks_r",
          "type": "bytes32"
        },
        {
          "internalType": "uint256",
          "name": "id_t",
          "type": "uint256"
        },
        {
          "internalType": "uint256",
          "name": "id_p",
          "type": "uint256"
        },
        {
          "internalType": "uint256",
          "name": "D_t",
          "type": "uint256"
        }
      ],
      "name": "publishTask",
      "outputs": [],
      "stateMutability": "nonpayable",
      "type": "function"
    },
    {
      "inputs": [
        {
          "internalType": "bytes32",
          "name": "h_epk",
          "type": "bytes32"
        },
        {
          "internalType": "uint256",
          "name": "id_p",
          "type": "uint256"
        }
      ],
      "name": "registerClient",
      "outputs": [],
      "stateMutability": "nonpayable",
      "type": "function"
    },
    {
      "inputs": [
        {
          "internalType": "uint256",
          "name": "id_p",
          "type": "uint256"
        },
        {
          "internalType": "uint256",
          "name": "nClients",
          "type": "uint256"
        },
        {
          "internalType": "bytes32",
          "name": "h_M0",
          "type": "bytes32"
        },
        {
          "internalType": "bytes32",
          "name": "h_pks",
          "type": "bytes32"
        }
      ],
      "name": "registerProject",
      "outputs": [],
      "stateMutability": "payable",
      "type": "function"
    },
    {
      "inputs": [
        {
          "internalType": "uint256",
          "name": "",
          "type": "uint256"
        }
      ],
      "name": "tasks",
      "outputs": [
        {
          "internalType": "bool",
          "name": "exists",
          "type": "bool"
        },
        {
          "internalType": "uint256",
          "name": "round",
          "type": "uint256"
        },
        {
          "internalType": "uint256",
          "name": "taskId",
          "type": "uint256"
        },
        {
          "internalType": "uint256",
          "name": "projectId",
          "type": "uint256"
        },
        {
          "internalType": "address",
          "name": "server",
          "type": "address"
        },
        {
          "internalType": "bytes32",
          "name": "hInf",
          "type": "bytes32"
        },
        {
          "internalType": "bytes32",
          "name": "hPks",
          "type": "bytes32"
        },
        {
          "internalType": "uint256",
          "name": "deadline",
          "type": "uint256"
        },
        {
          "internalType": "uint256",
          "name": "publishedAt",
          "type": "uint256"
        }
      ],
      "stateMutability": "view",
      "type": "function"
    },
    {
      "inputs": [
        {
          "internalType": "uint256",
          "name": "r",
          "type": "uint256"
        },
        {
          "internalType": "bytes32",
          "name": "h_Inf_a",
          "type": "bytes32"
        },
        {
          "internalType": "bytes32",
          "name": "h_ct_epk",
          "type": "bytes32"
        },
        {
          "internalType": "uint256",
          "name": "id_t",
          "type": "uint256"
        },
        {
          "internalType": "uint256",
          "name": "id_p",
          "type": "uint256"
        }
      ],
      "name": "updateModel",
      "outputs": [],
      "stateMutability": "nonpayable",
      "type": "function"
    },
    {
      "inputs": [
        {
          "internalType": "uint256",
          "name": "",
          "type": "uint256"
        },
        {
          "internalType": "address",
          "name": "",
          "type": "address"
        }
      ],
      "name": "updatesByTaskAndClient",
      "outputs": [
        {
          "internalType": "bool",
          "name": "exists",
          "type": "bool"
        },
        {
          "internalType": "uint256",
          "name": "round",
          "type": "uint256"
        },
        {
          "internalType": "uint256",
          "name": "taskId",
          "type": "uint256"
        },
        {
          "internalType": "uint256",
          "name": "projectId",
          "type": "uint256"
        },
        {
          "internalType": "address",
          "name": "client",
          "type": "address"
        },
        {
          "internalType": "bytes32",
          "name": "hInf",
          "type": "bytes32"
        },
        {
          "internalType": "bytes32",
          "name": "hCtEpk",
          "type": "bytes32"
        },
        {
          "internalType": "uint256",
          "name": "submittedAt",
          "type": "uint256"
        }
      ],
      "stateMutability": "view",
      "type": "function"
    }
  ],
  "bytecode": "0x608060405234801561001057600080fd5b50611613806100206000396000f3fe6080604052600436106100a75760003560e01c806361eed2a91161006457806361eed2a9146103735780637028d6e9146104045780638d977672146104245780638eec6dff146104e6578063c5e67c0314610506578063f8a7fbba1461052657600080fd5b8063107046bd146100ac57806322b2a0741461017c578063240ffc8e146101915780633065b2db146101ba578063342aaea0146101da5780633a227db1146102b6575b600080fd5b3480156100b857600080fd5b506101236100c7366004611315565b60006020819052908152604090208054600182015460028301546003840154600485015460058601546006870154600788015460089098015460ff9788169896976001600160a01b039096169694959394929391929091169089565b604080519915158a5260208a01989098526001600160a01b03909616968801969096526060870193909352608086019190915260a085015260c084015290151560e0830152610100820152610120015b60405180910390f35b61018f61018a36600461132e565b610546565b005b34801561019d57600080fd5b506101ac662386f26fc1000081565b604051908152602001610173565b3480156101c657600080fd5b5061018f6101d5366004611360565b61078f565b3480156101e657600080fd5b506102606101f536600461139e565b60046020818152600093845260408085209091529183529120805460018201546002830154600384015494840154600585015460068601546007870154600888015460099098015460ff97881699969895976001600160a01b0390951695939492939192909116908a565b604080519a15158b5260208b01999099529789019690965260608801949094526001600160a01b03909216608087015260a086015260c085015260e0840152151561010083015261012082015261014001610173565b3480156102c257600080fd5b5061032d6102d136600461139e565b600360208181526000938452604080852090915291835291208054600182015460028301549383015460048401546005850154600686015460079096015460ff909516969395939492936001600160a01b039092169290919088565b60408051981515895260208901979097529587019490945260608601929092526001600160a01b0316608085015260a084015260c083015260e082015261010001610173565b34801561037f57600080fd5b506103cd61038e3660046113ca565b60016020819052600091825260409091208054918101546002820154600383015460049093015460ff85169461010090046001600160a01b0316939086565b6040805196151587526001600160a01b039095166020870152938501929092526060840152608083015260a082015260c001610173565b34801561041057600080fd5b5061018f61041f3660046113ec565b61099b565b34801561043057600080fd5b5061049861043f366004611315565b600260208190526000918252604090912080546001820154928201546003830154600484015460058501546006860154600787015460089097015460ff9096169796949593946001600160a01b03909316939192909189565b604080519915158a5260208a01989098529688019590955260608701939093526001600160a01b03909116608086015260a085015260c084015260e083015261010082015261012001610173565b3480156104f257600080fd5b5061018f61050136600461142f565b610bb0565b34801561051257600080fd5b5061018f61052136600461145b565b610cc5565b34801561053257600080fd5b5061018f610541366004611496565b610f28565b60008481526020819052604090205460ff161561059b5760405162461bcd60e51b815260206004820152600e60248201526d70726f6a6563742065786973747360901b60448201526064015b60405180910390fd5b600083116105d85760405162461bcd60e51b815260206004820152600a60248201526906e436c69656e74733d360b41b6044820152606401610592565b662386f26fc100003410156106235760405162461bcd60e51b815260206004820152601160248201527019195c1bdcda5d081d1bdbc81cdb585b1b607a1b6044820152606401610592565b604051806101200160405280600115158152602001858152602001336001600160a01b03168152602001848152602001600081526020018381526020018281526020016000151581526020014281525060008086815260200190815260200160002060008201518160000160006101000a81548160ff0219169083151502179055506020820151816001015560408201518160020160006101000a8154816001600160a01b0302191690836001600160a01b03160217905550606082015181600301556080820151816004015560a0820151816005015560c0820151816006015560e08201518160070160006101000a81548160ff0219169083151502179055506101008201518160080155905050336001600160a01b0316847f9f9985b016d8c4fc9d0c65a9cad171c3a96bc6b149fa9bc11185f4e23425fa1b858585604051610781939291909283526020830191909152604082015260600190565b60405180910390a350505050565b60008181526020819052604090205460ff166107bd5760405162461bcd60e51b81526004016105929061150c565b60008181526020819052604090206007015460ff16156107ef5760405162461bcd60e51b815260040161059290611535565b60008181526020819052604090206003810154600490910154106108445760405162461bcd60e51b815260206004820152600c60248201526b1c1c9bda9958dd08199d5b1b60a21b6044820152606401610592565b3360009081526001602052604090205460ff16156108a45760405162461bcd60e51b815260206004820152601960248201527f636c69656e7420616c72656164792072656769737465726564000000000000006044820152606401610592565b6040805160c0810182526001808252336020808401828152848601878152606086018981526000608088018181524260a08a019081529682528786528982209851895495516001600160a81b0319909616901515610100600160a81b031916176101006001600160a01b0390961695909502949094178855915187870155516002870155905160038601559151600494850155858252819052928320909101805491929091610954908490611571565b9091555050604080516000815260208101849052829133917f89623e40f619969d06e106e68b7ecf36a789091ba9105361016a7d51469fa883910160405180910390a35050565b600082815260208190526040902054829060ff166109cb5760405162461bcd60e51b81526004016105929061150c565b6000818152602081905260409020600201546001600160a01b03163314610a045760405162461bcd60e51b81526004016105929061158a565b60008381526020819052604090206007015460ff1615610a365760405162461bcd60e51b815260040161059290611535565b604051806101200160405280600115158152602001888152602001858152602001848152602001336001600160a01b03168152602001878152602001868152602001838152602001428152506002600086815260200190815260200160002060008201518160000160006101000a81548160ff02191690831515021790555060208201518160010155604082015181600201556060820151816003015560808201518160040160006101000a8154816001600160a01b0302191690836001600160a01b0316021790555060a0820151816005015560c0820151816006015560e08201518160070155610100820151816008015590505083837fcb2708ef4731a91cbc981eac41868d460fd3718812f872e7d05ea76f9fb9da2b8989896000808a8152602001908152602001600020600301548842604051610b9f96959493929190958652602086019490945260408501929092526060840152608083015260a082015260c00190565b60405180910390a350505050505050565b600083815260208190526040902054839060ff16610be05760405162461bcd60e51b81526004016105929061150c565b6000818152602081905260409020600201546001600160a01b03163314610c195760405162461bcd60e51b81526004016105929061158a565b60008481526020819052604090206007015460ff1615610c6a5760405162461bcd60e51b815260206004820152600c60248201526b616c726561647920646f6e6560a01b6044820152606401610592565b60008481526020819052604090819020600701805460ff1916600117905551829085907fdf21ee0d76761543b66dd4281d56f24caeda55d182babee69999e343c0aacf67906107819087904290918252602082015260400190565b60008281526002602052604090205460ff16610d125760405162461bcd60e51b815260206004820152600c60248201526b7461736b206d697373696e6760a01b6044820152606401610592565b6000828152600260205260409020600301548114610d625760405162461bcd60e51b815260206004820152600d60248201526c1ddc9bdb99c81c1c9bda9958dd609a1b6044820152606401610592565b3360009081526001602052604090205460ff16610db25760405162461bcd60e51b815260206004820152600e60248201526d636c69656e74206d697373696e6760901b6044820152606401610592565b33600090815260016020819052604090912001548114610e0c5760405162461bcd60e51b815260206004820152601560248201527418db1a595b9d081b9bdd081a5b881c1c9bda9958dd605a1b6044820152606401610592565b60408051610100810182526001808252602080830189815283850187815260608501878152336080870181815260a088018d815260c089018d81524260e08b0181815260008f81526003808c528e8220888352909b528d90209b518c5490151560ff19909116178c559751998b0199909955945160028a015592519588019590955593516004870180546001600160a01b03929092166001600160a01b03199092169190911790555160058601555160068501555160079093019290925591519091849184917ff1ed8e0774251ced7fb2e25847d155871592dfa9e32c2fa0c87600fc9b40c5d591610f19918b918b918b9193845260208401929092526040830152606082015260800190565b60405180910390a45050505050565b600086815260208190526040902054869060ff16610f585760405162461bcd60e51b81526004016105929061150c565b6000818152602081905260409020600201546001600160a01b03163314610f915760405162461bcd60e51b81526004016105929061158a565b60008881526002602052604090205460ff16610fde5760405162461bcd60e51b815260206004820152600c60248201526b7461736b206d697373696e6760a01b6044820152606401610592565b60008781526020819052604090206007015460ff16156110105760405162461bcd60e51b815260040161059290611535565b6040518061014001604052806001151581526020018a8152602001898152602001888152602001876001600160a01b03168152602001868152602001858152602001848152602001831515815260200142815250600460008a81526020019081526020016000206000886001600160a01b03166001600160a01b0316815260200190815260200160002060008201518160000160006101000a81548160ff02191690831515021790555060208201518160010155604082015181600201556060820151816003015560808201518160040160006101000a8154816001600160a01b0302191690836001600160a01b0316021790555060a0820151816005015560c0820151816006015560e082015181600701556101008201518160080160006101000a81548160ff021916908315150217905550610120820151816009015590505061115c8684611230565b604080518a8152602081018790529081018590526060810184905282151560808201526001600160a01b03871690899089907f2090fc50a9504506485c770ca392d61e419a12518fb8d3676a199561b0f667199060a00160405180910390a481156112255760008781526020819052604090819020600701805460ff1916600117905551889088907fdf21ee0d76761543b66dd4281d56f24caeda55d182babee69999e343c0aacf679061121c908d904290918252602082015260400190565b60405180910390a35b505050505050505050565b6001600160a01b03821660009081526001602052604090205460ff16611254575050565b60008112156112e1576000611268826115ae565b6001600160a01b03841660009081526001602052604090206003015490915081106112ac5750506001600160a01b0316600090815260016020526040812060030155565b6001600160a01b038316600090815260016020526040812060030180548392906112d79084906115ca565b9091555050505050565b6001600160a01b0382166000908152600160205260408120600301805483929061130c908490611571565b90915550505050565b60006020828403121561132757600080fd5b5035919050565b6000806000806080858703121561134457600080fd5b5050823594602084013594506040840135936060013592509050565b6000806040838503121561137357600080fd5b50508035926020909101359150565b80356001600160a01b038116811461139957600080fd5b919050565b600080604083850312156113b157600080fd5b823591506113c160208401611382565b90509250929050565b6000602082840312156113dc57600080fd5b6113e582611382565b9392505050565b60008060008060008060c0878903121561140557600080fd5b505084359660208601359650604086013595606081013595506080810135945060a0013592509050565b60008060006060848603121561144457600080fd5b505081359360208301359350604090920135919050565b600080600080600060a0868803121561147357600080fd5b505083359560208501359550604085013594606081013594506080013592509050565b600080600080600080600080610100898b0312156114b357600080fd5b8835975060208901359650604089013595506114d160608a01611382565b94506080890135935060a0890135925060c0890135915060e089013580151581146114fb57600080fd5b809150509295985092959890939650565b6020808252600f908201526e70726f6a656374206d697373696e6760881b604082015260600190565b6020808252600c908201526b70726f6a65637420646f6e6560a01b604082015260600190565b634e487b7160e01b600052601160045260246000fd5b808201808211156115845761158461155b565b92915050565b6020808252600a90820152693737ba1039b2b93b32b960b11b604082015260600190565b6000600160ff1b82016115c3576115c361155b565b5060000390565b818103818111156115845761158461155b56fea26469706673582212202bf61272f1f3916314904795f82970107d22a2fc376b1772da325fb142fc980364736f6c63430008140033",
  "linkReferences": {},
  "deployedLinkReferences": {}
}